:020000040000FA
:10000000831671308F008601031789018312031351
:10001000A030A3000130A4002408A3042308860014
:100020000330A6000430A2000030A500A309A40DEF
:100030002308F039A30024080F39A400A3042308DF
:1000400086004320432043204320A60B162850302F
:10005000A3001030A400A309A40CA60B2308F039B8
:10006000A30024080F39A400A3042308860043201A
:10007000432043204320A20B2B280310432043207E
:10008000432043200828D030A000D030A100A10B8D
:080090004728A00B45280800D9
:0400980000340034FC
:02400E00D528B3
:02401000FF3F70
:00000001FF
